:100000000C944B020C9492020C9492020C94920267
:100010000C9492020C9492020C9492020C94920210
:100020000C9492020C9492020C94F1170C94AD175C
:100030000C942A1C0C9492020C9492020C9492023E
:100040000C9492020C9492020C9492020C949202E0
:100050000C9492020C94061C0C9492020C94920242
:100060000C9492020C9492020C9492020C949202C0
:100070000C9492020C9492020C9492020C949202B0
:100080000C9492020C9492020C9492020C949202A0
:100090000C9492020C9492020C9492020C94920290
:1000A0000C9492020C9492020C9492020501098025
:1000B000A101850319012AB700150126B700950192
:1000C00075108100C0050C0901A101850419012AE0
:1000D000A002150126A002950175108100C005013E
:1000E0000906A1018505050719E029E71500250185
:1000F0009508750181020507190029EF15002501F2
:1001000095F075018102050819012905950575010C
:100110009102950175039101C00660FF0961A1017B
:100120000962150026FF00952075088102096315F4
:100130000026FF00952075089102C005010906A15F
:1001400001050719E029E7150025019508750181CA
:10015000029501750881010507190029FF15002680
:10016000FF00950675088100050819012905950508
:1001700075019102950175039101C014001A0008E0
:1001800000150017001C0018000C001200130004DA
:10019000001600070009000A000B000D000E000009
:1001A000000F001D001B00060019000500050011CE
:1001B000001000E5000351E000025100002C000097
:1001C000002C00000001510000E4002900010001A2
:1001D000000100010001000100010001002A002BC4
:1001E0000001000100010001000100010001000008
:1001F000002800E1000100010001000100010001F0
:1002000000010001000100010001000000010000E8
:1002100000010000000100000001000100010001D8
:1002200000010001000100010001000100010001C6
:1002300000010001000100010001000100010000B7
:1002400000010001000100010001000100010001A6
:100250000001000100010001000100000001000098
:100260000001000000010000000100010001000188
:100270000001000100010001000100010001000176
:100280000001000100010001000100010001000067
:100290000001000100010001000100010001000156
:1002A0000001000100010001000100000001000048
:1002B0000001000000010000000100010001000138
:1002C0000001000100010001000100010001000126
:1002D0000001000100010001000100010001000017
:1002E0000001000100010001000100010001000106
:1002F00000010001000100010001000000010000F8
:1003000000010000000100000001000100010001E7
:1003100000010001000100010001000100010001D5
:1003200000010001000100010001000100010000C6
:1003300000010001000100010001000100010001B5
:1003400000010001000100010001000000010000A7
:10035000000100000001000000010000000000009A
:100360000000000000000000000000000000007E0F
:100370000F00D4FFFFFFC70000007800000000005E
:100380000000002A2B2800000000000000000000F0
:1003900000000000000029000000002C1E34202175
:1003A0002224342627252E362D3738271E1F2021BC
:1003B00022232425263333362E37381F040506071B
:1003C00008090A0B0C0D0E0F101112131415161735
:1003D00018191A1B1C1D2F3130232D350405060753
:1003E00008090A0B0C0D0E0F101112131415161715
:1003F00018191A1B1C1D2F3130354C09025B0003E4
:100400000100A0FA09040000010301010009211103
:100410000100012240000705810308000A090401C8
:10042000000203000000092111010001222200073F
:1004300005820320000107050303200001090402CF
:10044000000103000000092111010001226D0007D5
:1004500005840320000A1201100100000008504624
:1004600030010100010200010C0343002D003100A6
:100470003300580000001A034D0041004E005500A3
:100480004600410043005400550052004500520010
:1004900000000403090411241FBECFEFDAE0DEBF21
:1004A000CDBF04B603FE27C080913502909136027D
:1004B000A0913702B09138028730904BA740B04BE3
:1004C000D1F4109235021092360210923702109237
:1004D000380214BE84B7877F84BF0FB6F894A895FE
:1004E00080916000886180936000109260000FBE70
:1004F000E0E0F8E3099511E0A0E0B1E0E2EBF9E318
:1005000002C005900D92AA35B107D9F722E0AAE5FD
:10051000B1E001C01D92A533B207E1F70E94CC18EB
:100520000C94A01C0C940000E8EDF0E080818E7F1C
:1005300080831092E2001092DA001092E100A0EEA7
:10054000B0E08C9181608C9380818F77808319BC1F
:10055000A7EDB0E08C918E7F8C9380818F7E80831D
:100560001092FB0108952091E4003091E50095E69A
:10057000A9012091EC00822F817020FF06C080919C
:10058000E80080FF06C080E008952091E80022FD89
:100590001AC080912902882389F0853089F08091E2
:1005A000EB0085FD0FC02091E4003091E50042177B
:1005B0005307F9F29150E1F684E0089582E008953E
:1005C00083E0089581E00895EF92FF920F931F93C7
:1005D000CF937C018B010E94B302C82F811117C0F9
:1005E0008091E80085FD0BC08091E8008E778093B4
:1005F000E8000E94B302882399F3C82F08C0F701CE
:1006000081917F018093F1000150110949F78C2FEE
:10061000CF911F910F91FF90EF900895CF93FC0120
:1006200080912902843001F5C091E900CF702091BA
:10063000EC00922F917020FD90E8C92B82E080930E
:10064000E9008091E80080FF0CC050E040E060E2EB
:1006500070E0CF010E94E4028091E8008E778093E1
:10066000E800CF70C093E900CF91089580912102F6
:1006700087FF13C08091E80082FF06C08091E800E8
:100680008B778093E80004C0809129028111F2CF1A
:100690000895809129028823D9F38091E80080FF92
:1006A000F8CF8091E8008E77ECCF982F9093E900F7
:1006B000242F762F50E0891731F07091EC002091B3
:1006C000ED005091F00021FD07C09F5F973071F75A
:1006D0008093E90081E008953091EB003E7F3093F4
:1006E000EB003091ED003D7F3093ED003091EB0059
:1006F00031603093EB007093EC002093ED00509349
:10070000F0002091EE0027FDE0CF80E00895CF9229
:10071000DF92EF92FF920F931F93CF93DF93C8ED79
:10072000D0E088818F7E8883E7EDF0E08081816072
:10073000808384E082BF81E08093FB0188818E7F8B
:10074000888302EE10E0F80110821092DA0081EE48
:10075000C82ED12CF601108288818F7788838881FA
:100760008068888388818F7D888319BC10922902D4
:100770001092200210921F0210921E0290EEE92E9B
:10078000F12CF70180818B7F808388818160888351
:1007900042E060E080E00E945503F60180818E7F98
:1007A0008083F8018081816080838081886080837C
:1007B000F70180818E7F8083888180618883DF91CB
:1007C000CF911F910F91FF90EF90DF90CF90089500
:1007D000FC01809127029091280286179707A0F0CC
:1007E0006115710529F49091E8009E779093E800D7
:1007F00090E06115710551F4911108C08091E800F5
:1008000082FF34C080E00895BC01F2CF80912902BC
:100810008823C1F18530C1F18091E80083FD30C0AB
:100820008091E80082FDEACF8091E80080FFE1CF6F
:100830008091F3002091F200382F6115710519F0B5
:100840002830310558F091E02830310509F090E06A
:100850002091E8002E772093E800CBCF8191809300
:10086000F100615071092F5F3F4FE7CF809129025E
:10087000882341F0853041F08091E80083FFBECFAE
:1008800081E0089582E0089583E0089508958091BD
:10089000FD0108952FB7F89480912A0290912B02C0
:1008A000A0912C02B0912D022FBF08958091D70105
:1008B00081111092D70108958091D6019091D501B0
:1008C000892B9091D401892B80935A019091D70163
:1008D0009923A1F0892B80935A0180910A018823E2
:1008E00041F18091E40187FF24C08EE1ECE5F1E065
:1008F00090E0815000F591110E945604E091E601CC
:10090000F091E7013097E1F080910A01882359F0D6
:100910008091E40187FF07C080915A0180935B01B9
:1009200085E080935A010280F381E02D8AE591E011
:10093000099486E0DBCF21912223D9F29F5FD9CFA2
:10094000089590910A019923D1F09091E40197FFC5
:1009500016C0E82FE695E695E695EE31E0F4F0E076
:10096000E65AFE4F282F277081E090E001C0880FE3
:100970002A95EAF780959281892382830895ECE590
:10098000F1E09191891303C0DF0111971C9291E06E
:10099000E236F907B1F7089590910A019923C1F061
:1009A0009091E40197FF14C0E82FE695E695E6954F
:1009B000EE31F8F4F0E0E65AFE4F877021E030E0C7
:1009C00001C0220F8A95EAF78281822B82830895E3
:1009D000ACE5B1E0EFEF90E02D91821751F0EF3FE1
:1009E00019F4211101C0E92F9F5F9630A9F7EF3F5D
:1009F00009F408950E2E000CFF0BE65AFE4FE6CFC9
:100A00002AE0929F800D1124982F977086958695E5
:100A1000869525E0829FF0011124E654FE4F50E0B8
:100A200040E080E0219130E0092E02C03695279504
:100A30000A94E2F721703327042E01C0220F0A9492
:100A4000EAF7822B4F5F5F4F4530510559F7089504
:100A50002AE0929F800D1124982F977041E001C0E9
:100A6000440F9A95EAF786958695869595E0899F35
:100A7000F0011124E654FE4F90E080E070E05191C7
:100A8000DF0111979B01082E02C0369527950A9425
:100A9000E2F7217021952527242325272C93019601
:100AA0008530910561F708952091B90190918801F1
:100AB00056E0291302C080E0089530E0529FF00113
:100AC000539FF00D1124E757FE4F7181761306C036
:100AD0007081781303C07281741304C02F5F3F4F7D
:100AE0002770E7CF81E008958091B9019091880146
:100AF000981301C008958F5F8770FACF882341F063
:100B000080959091D60189238093D6010C945C0442
:100B10000895882339F09091D601982B9093D601AF
:100B20000C945C04089520917F0130918001281776
:100B3000390771F09093800180937F01E091E60185
:100B4000F091E701309721F00084F185E02D0994C0
:100B5000089520917D0130917E012817390771F0A9
:100B600090937E0180937D01E091E601F091E70191
:100B7000309721F00680F781E02D099408951092B6
:100B8000D5011092D4010E945C0490E080E00E94A4
:100B9000A90590E080E00C94930560933102709376
:100BA000320280933302909334020C94BF050F936A
:100BB0001F936091310270913202809133029091C3
:100BC00034028B019C01067011272227332706303F
:100BD00011052105310529F468601F910F910C94CE
:100BE000CD05677FFACF0F931F9341E050E060E09F
:100BF00070E004C0440F551F661F771F8A95D2F717
:100C0000CB01BA0160957095809590950091310265
:100C1000109132022091330230913402602371230B
:100C2000822393231F910F910C94CD059091D301B2
:100C3000809589238093D301282F277071F4282F62
:100C4000082E000C330B9217130639F08595859505
:100C500085950E94F3051092D30108950F931F9379
:100C600041E050E060E070E004C0440F551F661F93
:100C7000771F8A95D2F78091310290913202A0912C
:100C80003302B09134028A019B01082B192B2A2BC5
:100C90003B2BC901B8011F910F910C94CD056093B6
:100CA000D8017093D9018093DA019093DB010C9401
:100CB000BF05E091E601F091E701309721F0019046
:100CC000F081E02D099480E00895882309F452C052
:100CD000823871F40E94590681FF4CC089E30E945A
:100CE000CC040E945C0489E30E94A1040C945C047F
:100CF000833859F40E94590680FF3CC083E50E9466
:100D0000CC040E945C0483E5EFCF843859F40E9440
:100D1000590682FF2FC087E40E94CC040E945C0425
:100D200087E4E2CF9CEF980F913AF0F290E2980FAF
:100D3000983088F4877021E030E0A90102C0440FA8
:100D4000551F8A95E2F7CA0180959091D6018923B3
:100D50008093D601CBCF9BE5980F933020F490E0A1
:100D600080E00C94A905885A873120F490E080E057
:100D70000C9493050895F894E82FE295EF70F0E055
:100D800031A1282F2F7081E090E001C0880F2A95B3
:100D9000EAF7982F9095932391A392A1892B82A390
:100DA000789408959091E40192FF06C0282F28714D
:100DB0002830F9F4877F846093FF06C0282F2871BC
:100DC0002831F1F4877E84612091E50120FF06C07F
:100DD000382F38713830D9F4877F816021FF06C001
:100DE000282F28712831D1F4877E816194FD877E78
:100DF0000895282F24712430F9F68B7F8860DCCF8A
:100E0000282F2471243101F78B7E8861DDCF382FA4
:100E10003171313019F78E7F8860E0CF282F217132
:100E2000213121F78E7E8861E1CFCF93DF9300D00F
:100E30000F92CDB7DEB790912902943011F58983D6
:100E40007B836A839093E9008FEF9091E800815053
:100E500095FD06C095ED9A95F1F700008111F5CF4B
:100E60008091E80085FF0DC050E040E063E070E055
:100E7000CE0101960E94E4028091E8008E77809373
:100E8000E8000F900F900F90DF91CF910895BC0173
:100E900084E00C941507BC0183E00C941507CF93F4
:100EA000DF93EC0180910A018823B1F18091E40184
:100EB00087FF32C060E284E08093E9008FEF909179
:100EC000E800815095FD06C095ED9A95F1F7000078
:100ED0008111F5CF8091E80085FF1BC080910A0148
:100EE00070E050E040E0811104C050E040E068E074
:100EF00070E0CE010E94E4028091E8008E7780933A
:100F0000E80080E2FE01AEEFB1E001900D928A951B
:100F1000E1F7DF91CF91089568E081E0CDCF81E0E6
:100F20008093E00080E28093D8001092C9008FE1A6
:100F30009EE40197F1F700C0000087E090EBDC0130
:100F40008093350290933602A0933702B093380213
:100F500088E19CE00FB6F894A895809360000FBEDE
:100F600090936000FFCFCF93C82F882309F4A6C0C9
:100F70008238C1F40E94590681FDA0C089E30E9415
:100F8000CC040E945C042FEF81EE94E0215080405D
:100F90009040E1F700C0000089E30E94A104CF91D6
:100FA0000C945C048338A1F40E94590680FD86C02D
:100FB00083E50E94CC040E945C042FEF81EE94E054
:100FC000215080409040E1F700C0000083E5E5CF6C
:100FD0008438A1F40E94590682FD70C087E40E9403
:100FE000CC040E945C042FEF81EE94E021508040FD
:100FF0009040E1F700C0000087E4CFCF8CEF8C0F6A
:10100000813A88F580910A01882301F18091E401F9
:1010100087FF1CC0EC2FE695E695E695F0E0E65AD2
:10102000FE4F828190E04C2F477021E030E002C0FB
:10103000220F331F4A95E2F782239323892B79F0FD
:101040008C2F0E94A1040E945C0409C0ECE5F1E031
:101050008191C817A9F321E0E236F207C9F78C2F76
:101060000E94CC049CCF80E28C0F883068F4C7705B
:1010700021E030E001C0220FCA95EAF78091D60145
:10108000822B8093D6018BCFEBE5EC0FE33040F45D
:10109000F0E0E55FFE4F808190E0CF910C94A905D0
:1010A000C85AC73158F4EC2FF0E0EE0FFF1FE25F93
:1010B000FE4F80819181CF910C949305CF9108953B
:1010C000CF93C82F0E94B307C93349F42FEF87EE9F
:1010D00093E0215080409040E1F700C000008C2F49
:1010E000CF910C9465060F931F93CF93DF93C62F78
:1010F000D42F022FFC0182818823A1F0609330025B
:101100000E944A0490932F0280932E02C77081E0C0
:1011100001C0880FCA95EAF7DF91CF911F910F9117
:101120000C94890580913002681340C020912E02F2
:1011300030912F024FB7F89480912A0290912B02A0
:10114000A0912C02B0912D024FBF821B930B843FC4
:10115000914060F510E21D0F6D17B9F080E2860F27
:10116000883040F4C77081E001C0880FCA95EAF763
:101170000E947E05183048F481E09D2F977001C0D1
:10118000880F9A95EAF70E948905802F0E946008CF
:10119000183098F4D77081E001C0880FDA95EAF72B
:1011A000DF91CF911F910F910C947E05C77081E064
:1011B00001C0880FCA95EAF7F3CFDF91CF911F9155
:1011C0000F910895AF92BF92DF92EF92FF920F932B
:1011D0001F93CF93DF93CCE3D1E00CED11E0D12C42
:1011E000EE24E394F12C8991F894E82FE295EF70C6
:1011F000F0E021A18F70A70102C0440F551F8A950E
:10120000E2F7CA01922F982B91A392A1809589238E
:1012100082A3789450EA5A95F1F7E0E4F1E030E0E7
:1012200020E0B12CA12C4191A42FA295AF70B0E089
:1012300090968C9190E04F7002C0959587954A9555
:10124000E2F780FD67C0C701022E02C0880F991F18
:101250000A94E2F7A82AB92A2F5F3F4F2A303105B6
:1012600011F7FE01319780810E94BB06F801808151
:101270009181A816B90609F450C0B182A08281E01C
:10128000D82A0E5F1F4FF1E0C034DF0709F0ABCF63
:10129000DD2009F444C081E080937C010E944A046F
:1012A00090937B0180937A0120917A0130917B01A8
:1012B0004FB7F89480912A0290912B02A0912C02B2
:1012C000B0912D024FBF821B930B069760F1809166
:1012D000DC019091DD019093F4018093F301809102
:1012E000DE019091DF019093F6018093F5018091EA
:1012F000E0019091E1019093F8018093F7018091D2
:10130000E2019091E3019093FA018093F901109228
:101310007C0109C090E080E09DCF80E0B1CF80915A
:101320007C018111C1CF8D2DDF91CF911F910F9144
:10133000FF90EF90DF90BF90AF900895CF9384E03F
:1013400090E00E945E1CC82F81E290E00E945E1C2B
:10135000982F8C2FCF9108950F931F93CF93DF93E6
:10136000C42FD0E0CC0FDD1F24E1629FC00DD11D42
:10137000112430E5839FC00DD11D1124CE01869626
:101380000E945E1C082F10E0102F0027CE018796C8
:101390000E945E1C9801282BC901DF91CF911F91FB
:1013A0000F910895462F863038F4743028F46A304F
:1013B00018F4672F0C94AC0990E080E00895CF9367
:1013C000DF930E94D209EC0182389105A9F1D8F58A
:1013D0008133910509F496C048F58932910509F4E5
:1013E0008AC08A9709F495C0C11522E5D20708F092
:1013F000B6C0C11531E5D30708F026C1C83ED105F6
:1014000008F09CC0C03ED10560F5C83AD10508F08F
:1014100087C0C53AD10508F0EFC0C130D10509F148
:101420002097F9F0C430D105E0F440C08533910530
:1014300009F45AC0C997C1F68091E401837089F01C
:10144000C0EED0E00EC0833E910599F170F4803E6D
:10145000910501F1823E910539F68091E40182FD0A
:1014600021C0CE01DF91CF910895863E910561F1B3
:10147000873E910571F1843E910509F0B5CF8091C9
:10148000E50181FFEECF8091E401C7EED0E084FD5D
:101490000DC0E7CF8091E40180FD07C19091E50187
:1014A00090FFDFCFC3EED0E084FFDBCFD0E0C0E021
:1014B000D8CF8091E40182FDFBC09091E50190FDC1
:1014C000BFCF84FFCECFF2CF8091E40183FDDDCF8B
:1014D000C8CF8091E40183FDEEC09091E50191FFBA
:1014E000F0CFC4EED0E0BDCF8091E40185FFB9CF4D
:1014F000C9E2D0E0B6CF8091E40185FFB2CFC5E369
:10150000D0E0AFCF8091E40186FFABCFCAE2D0E05C
:10151000A8CF8091E40186FFA4CFC1E3D0E0A1CFA2
:10152000CF3BD10518F6C85AD0E0CC0FDD1FC25F03
:10153000DE4F0990D881C02DD46493CFC11540E50A
:10154000D40708F064C0C11580E4D80708F05CC077
:10155000CE019A9581159F4108F483CFA7CFC1157D
:1015600036E5D30718F5C11545E5D40708F084C062
:10157000C11584E5D80708F07AC09C2F96959695FA
:101580009E0123703327C115D34508F462C0C1E022
:10159000D0E002C0CC0FDD1F2A95E2F730E2939F26
:1015A000C0011124C82BD92BDA685BCFC1158AE59D
:1015B000D80778F4C11599E5D90708F068C0C115B6
:1015C00028E5D20708F472CFDC2FCC27C06FD06A91
:1015D00048CFCE0190568115904208F067CF8D2FED
:1015E0008F710E94D20690E0982F882788279F71DC
:1015F0009C012C2BE90149C0C55AD0E0C55FDE4FE4
:10160000C881D0E0D0642DCFDF70D06A2ACFCE0160
:10161000E4E096958795EA95E1F783702C2F26955F
:101620002695237040E2249F90011124382B8C2FA3
:101630008370C1E0D0E002C0CC0FDD1F8A95E2F7D5
:10164000C22BD32BDC680DCFDC2FCC27C16FD06A27
:1016500008CFC1E0D0E002C0CC0FDD1F2A95E2F731
:1016600020E2929FC0011124C82BD92BEBCFDC2F95
:10167000CC27C46FD06AF5CE8C2F0E94D206C82F1B
:10168000D0E0DC2FCC27CC27DF71D062EACE8C2FC4
:101690008F700E94D20634E0D695C7953A95E1F74F
:1016A000CF709C2FEC01D069DCCEC9E3D0E0D9CE5D
:1016B000C2EED0E0D6CEC6EED0E0D3CEBF92CF926F
:1016C000DF92EF92FF920F931F93CF93DF938C01E2
:1016D000C0903102D0903202E0903302F090340298
:1016E0008091D8019091D901A091DA01B091DB01EC
:1016F000C82AD92AEA2AFB2ACFE1D0E0BC2ED7019A
:10170000C6010C2E04C0B695A795979587950A94A7
:10171000D2F780FD0EC0219788F7B12C8B2DDF9179
:10172000CF911F910F91FF90EF90DF90CF90BF90DE
:101730000895B8018C2F0E94DF09019761F3EECF65
:10174000CF93DF93EC010E945E0BBE01DF91CF913E
:101750000C94DF090E94A00B292F2F7092959F7087
:1017600092509E3078F4E92FF0E0EE55F34E0C9451
:10177000511C803F19F020F4883E20F481E0089548
:10178000843FE1F380E00895883EC0F3813FD1F7C4
:10179000F5CF822F86958695869508956F927F92D4
:1017A0008F929F92AF92BF92CF92DF92EF92FF9271
:1017B0000F931F93CF93DF938BE7C82E81E0D82E32
:1017C0009AE8E92EF12CE701C055D10936011BC07A
:1017D000F50185909490692DC8010E946C1C682DBC
:1017E000C80101960E946C1C82E0A80EB11C0E5F1D
:1017F0001F4FC017D10761F784E1680E711C649612
:10180000CE15DF0529F08E01045111095301E0CFF7
:101810007E0180E5E80EF11C80E5C80ED11C8AE649
:10182000E81682E0F80679F6DF91CF911F910F91CB
:10183000FF90EF90DF90CF90BF90AF909F908F90F0
:101840007F906F900895CF93DF93C6E0D2E060E081
:10185000CE010E946C1C2196C11584E0D807B9F70F
:10186000DF91CF910895CF93C82F6FEF811162E27E
:1018700082E290E00E946C1CC1110CC0CFEF6C2F73
:1018800083E290E00E946C1C6C2F84E290E0CF9188
:101890000C946C1CC2E0F3CF6CEE7EEF90E080E025
:1018A0000E948A1C60E082E090E00E946C1C60E074
:1018B00083E090E00E946C1C1092D8011092D90134
:1018C0001092DA011092DB0160E084E090E00E9467
:1018D0006C1C60E081E290E00E946C1C60E085E09E
:1018E00090E00E946C1C60E086E090E00E946C1C1E
:1018F0006FEF87E090E00E946C1C40E050E0BA017E
:1019000088E090E00E947E1C60E08DE090E00E9404
:101910006C1C40E050E0BA0188E190E00E947E1C1F
:1019200060E087E190E00E946C1C40E050E0BA016A
:101930008CE190E00E947E1C60E080E290E00E94DA
:101940006C1C40E050E0BA0188E190E00E947E1CEF
:1019500040E050E0BA018FE090E00E947E1C40E041
:1019600050E0BA0183E190E00C947E1C1092D60105
:1019700080910A01ECE5F1E0882359F08091E401BF
:1019800087FF07C08EE1DF011D928A95E9F70C946D
:10199000BF0586E0F8CF1F93CF93DF93CDB7DEB7B7
:1019A000AA970FB6F894DEBF0FBECDBF81E292E0DA
:1019B0002091F100DC012D93CD01B2E089329B072B
:1019C000B9F780912202833009F471C0B8F48130F4
:1019D00009F448C0823009F4B2C08091E80083FF66
:1019E0003AC180912102909122029A3008F033C1CD
:1019F000E92FF0E0E055F34E0C94511C8A3009F4C5
:101A00008DC08B3009F470C0893039F78091210284
:101A1000813219F78091250290912602009711F0EA
:101A20000297D9F68091E800877F8093E800809143
:101A3000E80082FF37C09091F3008091F200029796
:101A400029F48091F1008B7F813021F48091F100A5
:101A50008093FD018091E8008B778093E8000E94DD
:101A60003603BBCF80912102813A09F0B6CF809135
:101A7000E800877F8093E8008091250290912602FC
:101A8000892B61F460E28EEF91E070E00E94E80340
:101A90008091E8008B778093E8009FCF60E090E032
:101AA00080E0F3CF809129028111C1CF96CF809140
:101AB0002102813A09F091CF80912502909126026E
:101AC000892B09F08ACF8091E800877F8093E80016
:101AD0008091E80080FFFCCF80910A018093F100A3
:101AE0008091E8008E77B9CF80912102813209F090
:101AF00074CF8091250290912602892B09F06DCF39
:101B00008091E800877F8093E8000E9436038091EF
:101B1000230280930A010E94B60C5FCF80912102BC
:101B2000813209F05ACF8091E800877F8093E800E6
:101B30000E943603809124028093FC014ECF809155
:101B40002102813A09F049CF8091E800877F809394
:101B5000E8008091E80080FFFCCF8091FC01BECFBF
:101B6000803899F0823809F076C0809125028F7014
:101B7000873008F070C08093E9008091EB0085FB0E
:101B8000882780F91092E90006C080911E0290918A
:101B90001F02911182609091E800977F9093E80076
:101BA0008093F1001092F1008091E8008E77B5C12A
:101BB000882309F4A2C1823009F04DC0809123022C
:101BC0008111A6C1809125028F702FEF280F26303A
:101BD00008F041C08093E9002091EB0020FF98C1FC
:101BE000933031F48091EB0080628093EB0090C1E0
:101BF0009091EB0090619093EB0021E030E001C008
:101C0000220F8A95EAF72093EA001092EA00809169
:101C1000EB008860EACF81111EC0109123021F776C
:101C20008091E3008078812B8093E3008091E8002D
:101C3000877F8093E8000E9436038091E80080FF50
:101C4000FCCF8091E30080688093E30082E0111173
:101C500083E0809329028091E80083FF0AC080918D
:101C6000E800877F8093E8008091EB00806280939A
:101C7000EB00AA960FB6F894DEBF0FBECDBFDF9182
:101C8000CF911F9108958058823028F72091230228
:101C9000309124022C3DE3E03E07A1F583E08A83E6
:101CA0008AE289834FB7F894DE01139620E03EE084
:101CB00051E2E32FF0E050935700E49120FF03C07E
:101CC000E295EF703F5FEF708E2F90E0EA30C0F04A
:101CD000C7968D939D932F5F243159F74FBF809105
:101CE000E800877F8093E8006AE270E0CE01019609
:101CF0000E94E8038091E8008B778093E800ABCFE7
:101D0000C096E7CF8091250290912602432F552758
:101D10004330510509F44AC078F54130510509F4C2
:101D20007AC08BE590E0EBEFF3E04230510509F02B
:101D300092CF2091E800277F2093E800209127028E
:101D4000309128028217930708F49C0140E0211586
:101D5000310509F065C0411163C08091E80082FD42
:101D6000C9CF80912902882329F2853019F2809108
:101D7000E80083FFF2CFBECF4132510509F43CC0E9
:101D80004232510509F067CF8330910508F063CFE7
:101D9000FC01EE0FFF1FE35BFE4F0190F081E02D91
:101DA000865B9E4FDC018C9190E01AC03327213076
:101DB0003105D1F02115310561F02230310509F0EE
:101DC0004ACFE8E6F4E0E4918E2F90E0E8E6F4E014
:101DD00007C0E2E9F4E0E4918E2F90E0E2E9F4E05C
:101DE000009709F438CFA5CFE6E7F4E0E4918E2F11
:101DF00090E0E6E7F4E0F4CF8330910508F02BCFD4
:101E0000880F991FFC01ED5AFE4F0190F081E02DE3
:101E100089E090E08ECF82E190E0E6E5F4E089CFC2
:101E200080912902882309F465CF853009F462CFB7
:101E30008091E80083FD5ECF8091E80082FD8DCF28
:101E40008091E80080FF83CF9091F3008091F200B1
:101E50002115310519F08830910550F041E00897BF
:101E600009F040E08091E8008E778093E8006FCF22
:101E700044914093F1003196215031090196E8CF09
:101E8000803809F0E8CE8091E800877F8093E800F1
:101E9000809120028093F10087CE8111DCCE1091D9
:101EA0002302123008F0D7CE8091E800877F80931C
:101EB000E800109320020E943603112311F084E001
:101EC00005C08091E30087FDFACF81E0809329026D
:101ED00042E061EC81E00E94550342E261EC84E063
:101EE0000E94550342E261EC82E00E94550342E207
:101EF00060EC83E00E945503AECE809123028130D6
:101F000009F0A9CE81E0933009F080E080931F02B0
:101F10001092E9008091E800877F8093E8000E949A
:101F2000360399CE4F925F926F927F928F929F92DB
:101F3000AF92BF92CF92DF92EF92FF920F931F93D7
:101F4000CF93DF9300D000D00F92CDB7DEB77C01E6
:101F5000FC0183819481892B31F0808191818923D7
:101F60008F3F09F016C50F900F900F900F900F90B4
:101F7000DF91CF911F910F91FF90EF90DF90CF9065
:101F8000BF90AF909F908F907F906F905F904F9099
:101F900008950E945E0B182F682F89819A810E94F4
:101FA000280569817A81812F0E94D2098C01F7016D
:101FB0008281882309F4E2C4980122513F452031EF
:101FC000310508F0B4C48FEF93E00E945E1C02510B
:101FD00056E0A52E52E0B52E882379F18091D301E9
:101FE000877009F4C0CFF7018281882309F4BBCF41
:101FF00082E00F900F900F900F900F90DF91CF9194
:102000001F910F91FF90EF90DF90CF90BF90AF9016
:102010009F908F907F906F905F904F900C941606DA
:10202000A114F4E0BF06D1F2C5010E945E1C81112B
:1020300001C001502FEFA21AB20A0111F1CF1C8288
:102040001B82662463944AE0542E85010F5F1F4F64
:10205000C5010E945E1C89831A82882309F4BECFC1
:102060009FEF980F933008F58A83698232E0A30EC0
:10207000B11CC8010E945E1C8B83882309F4AECF7B
:102080008E010F5F1F4FF80120812223F1F22130D2
:1020900009F043C091818281913049F40E5F1F4F56
:1020A0000E9460080F5F1F4FEECF5801E9CF9230BA
:1020B00029F40E5F1F4F0E94B307F4CF933029F429
:1020C0000E5F1F4F0E946506EDCF943019F00F5F31
:1020D0001F4FE8CF0E5F1F4F30E020E0B8016F5F69
:1020E0007F4FF80141818053990B8A30910550F060
:1020F00021503109B8F28FE99FE00197F1F700C054
:102100000000F6CF529EF001539EF00D11249C0169
:102110002E0F3F1F842F8B01E1CFE22FF0E0E55817
:10212000FC4F7490822F86958695869590E0FC01F1
:10213000E559FC4F84902770912C022E02C0959493
:1021400087940A94E2F7E1E08E229924FC01E55A93
:10215000FC4FC490D12C02C0D594C7942A95E2F7C5
:10216000F1E0CF22DD248114910419F081EE0E9468
:10217000B307C114D10419F086EE0E94B307872D6E
:102180000E946008CD2819F086EE0E946506892815
:1021900009F488CF81EE96CF81E00E942E060E943E
:1021A000D7051CCF81E00E94F305F9CF82E0F5CF7F
:1021B000063F2CE5120709F461C008F45BC027E272
:1021C00045EE66EE073F9CE5190709F4D3C3882363
:1021D00009F4F0C3109230020230ECE51E0708F457
:1021E00030C10631FCE51F0738F098012B5F3C45F4
:1021F0002930310508F025C10E949E099093E50120
:102200008093E40100312CE5120709F4E9C008F0DD
:1022100073C008308CE5180709F4D4C008F045C035
:102220000430ECE51E0709F4C1C078F502302CE556
:10223000120709F4B5C08091E401826003301C45A7
:1022400009F4B1C06091E4011091E50184E090E0EF
:102250000E946C1C612F81E290E00E946C1C0E9425
:10226000B60CBCCE27E245EE65EE84C326E241EE15
:1022700060EE80C327E245EE64EE7CC326E241EEC9
:1022800062EE78C328E241E0EFCF06308CE5180714
:1022900009F494C08091E401886007301C4508F47B
:1022A00082C08091E40180627EC08091E4018D7FD4
:1022B0000C30ECE51E0709F476C070F48091E4015F
:1022C0008C600A302CE5120709F46DC008F47EC05A
:1022D0008091E4018E7F67C00E308CE5180709F409
:1022E0007BC08091E4018B7F0F301C4508F45BC0FC
:1022F0008091E4018F7E57C00C3FECE51E0709F486
:1023000059C030F503312CE5120709F471C078F497
:1023100001318CE5180709F467C002311C4509F04A
:1023200091CF0E94B60C8091E4018F773CC00531BB
:10233000ECE51E0709F464C008F478C08091E5015B
:1023400081600B3F1C4509F07DCF8093E5017ACF7A
:1023500001153DE5130709F44FC088F48091E501AC
:102360008D7F0E3F9CE5190781F38091E5018E7FFB
:102370000F3F1C4550F38091E5018360E6CF0230AA
:10238000FDE51F0709F45BC008F446C060E00330B8
:102390001D4509F057CF8EE090E00E946C1C52CF93
:1023A0008091E40181608093E4014CCF8091E4014D
:1023B0008460F9CF8091E5018260C7CF8091E4010C
:1023C0008061F1CF8091E4018064EDCF0E94B60C72
:1023D0008091E4018068E7CF8091E401877FE3CFBB
:1023E0008091E4018F7DDFCF8091E4018F7BDBCF93
:1023F0008091E401837FD7CF8091E5018C7FA5CFC9
:102400008091E40182FB992790F921E0922790FBCB
:1024100082F990FB83F9C7CF8091E501982F9095C1
:1024200091708E7F892B90FB81F98FCF0E94B60C23
:102430009091E401892F97FB87F98058B4CF61E030
:10244000AACF06319CE5190709F0BFC28091D601D9
:102450008A7A91E009F490E090938101811106C09D
:1024600089E20E94CC040E945C04B8CD85E3F9CFD8
:1024700085E3A8C20E94B60CEFEFF4E32CE0E15034
:10248000F0402040E1F700C000000E948F070E944A
:102490004C0CA4CDC8010E940005D82EADC2212F3E
:1024A0002F70A22E107F19F0A29490EFA922DD20A8
:1024B000C9F0AA2069F080E2800F883010F0811006
:1024C0000BC08091D601A82AA092D6010E945C047C
:1024D000802F0E94B30718C08091D501A82AA0922E
:1024E000D501F4CF802F0E946506AA2069F0A09440
:1024F000005E083010F081103BC08091D601A82208
:10250000A092D6010E945C04EB2DE850FF0B34979B
:1025100010F40E945906CC2009F425CD8091D301F6
:1025200080FD21CDF70112828595859585950E94C4
:102530002E06C7010E94920F8091D3018595859543
:1025400085950F900F900F900F900F90DF91CF9186
:102550001F910F91FF90EF90DF90CF90BF90AF90C1
:102560009F908F907F906F905F904F900C94F305A9
:102570008091D501A822A092D501C4CF312F3F7000
:10258000932E107F103219F0929480EF98228820B9
:1025900071F081E0881661F1DD20B9F1AA2071F1B6
:1025A000F701858180FF94CF8F70858327C0DD2060
:1025B00091F09091D701892D892BA11003C00E9421
:1025C0008905A2CFE1E0AE12FACF981709F49CCFAB
:1025D0008093D70199CFA11006C00E945604892D7F
:1025E0000E947E0591CFF1E0AF1609F48DCFF5CFB3
:1025F000DD2031F025E02A1508F486CF892DDFCFC4
:1026000034E03A1508F480CFEACFAA2041F3F9E389
:102610008F1286C12FEF37EE83E02150304080408B
:10262000E1F700C000007CC1812F869586958370FC
:1026300061F0813009F068CFC8019370D11002C0F9
:1026400090E080E00E9493055FCFC8019370D110A5
:1026500002C090E080E00E94A90556CF812F8370D0
:1026600009F066C0D11050CF802F82958695877073
:10267000880F880F602F6F70462E512C712C612CA3
:10268000082E04C0440C551C661C771C0A94D2F713
:1026900040E050E0BA0104FF0FC04FE050E060E0BE
:1026A00070E004C0440F551F661F771F8A95D2F74C
:1026B0004095509560957095812F8695869583708D
:1026C000823019F1D8F40091D8011091D9012091EC
:1026D000DA013091DB01813069F0442955296629FE
:1026E0007729CB01BA0160237123822393230E94AF
:1026F0004F060ACF402A512A622A732ACB01BA0117
:102700006429752986299729F2CF442955296629F4
:1027100077290091D8011091D9012091DA013091E7
:10272000DB01CB01BA016027712782279327DFCF16
:102730008695DD2011F0812F8170882309F4E4CE85
:10274000802F829586958770880F880F602F6F7015
:10275000462E512C712C612C082E04C0440C551CA3
:10276000661C771C0A94D2F740E050E0BA0104FFDF
:102770000FC04FE050E060E070E004C0440F551F10
:10278000661F771F8A95D2F7409550956095709592
:10279000812F869586958370823019F1D8F4009147
:1027A0003102109132022091330230913402813093
:1027B00069F04429552966297729CB01BA0160239C
:1027C0007123822393230E94CD059ECE402A512A55
:1027D000622A732ACB01BA016429752986299729AF
:1027E000F2CF4429552966297729009131021091A9
:1027F00032022091330230913402CB01BA016027BA
:10280000712782279327DFCF1F70DD2029F0812FCA
:102810000E942E06802FD3CE802F0E947E05812F0E
:102820000E94F30571CE802F92EF891609F450C0F3
:10283000981578F0E0EF8E1619F1F1EF8F1609F484
:102840003FC0DD2009F467C0A11042CE812F8F71F7
:102850003CC023EF821609F440C034EF8312F1CF5D
:10286000DD2009F44DC01F71812F0E942E06E8E083
:102870001E9FC001112483608093D301812F25C046
:10288000DD20C9F084E08A1508F43ECE1F7161E0B6
:1028900070E080E090E004C0660F771F881F991FEA
:1028A0001A95D2F700913102109132022091330231
:1028B00030913402A4CF95E09A1508F425CEE6CFE6
:1028C000812F8F71DD2009F4ABCF0E942E061CCE24
:1028D000812F8F71DD20C9F3A3CF60E070E0CB01C1
:1028E000DD2009F470CF1F7161E070E080E090E0BE
:1028F00004C0660F771F881F991F1A95D2F763CF00
:1029000081E00E941606F1E0FA1508F0FDCD82E0A4
:102910000E941606F9CDAA2039F0893309F47ACE3F
:10292000802F0E946506F0CD812F8F7179CF003105
:10293000FFE51F0709F430CC01312FE5120709F438
:1029400035CC043F2CE5120709F490CC08F030CCCC
:10295000093D9CE5190709F485CC0A3DECE51E0705
:1029600009F490CC083DFCE51F0709F030CC26E2C5
:1029700041EE61EEC7010E94730830CB00313FE5A4
:10298000130709F40FCC01319FE51907D1F682E056
:102990000ACC85E0DE01119601900D928A95E1F74F
:1029A000F701228189819A812111F3CA0E940005D1
:1029B000182FF7CA06311C4589F4809181018111D5
:1029C00057CD89E20E94A1044ECD01152CE51207D6
:1029D00009F450CD0F3D1C4509F459CDF701008194
:1029E0001181882309F456CDC8010E945E0BD82EB0
:1029F000682FC8010E942805B8018D2D0E94DF09AB
:102A00008C01882EF701A580A2943FE0A322D280FA
:102A1000D1101092D5018091D301877099F0DD20FB
:102A200089F0812F807F803421F080E2800F883010
:102A300048F082E00E9416068091D3018770CC2472
:102A4000C3948111C12CB12EB2942FE0B222FBE0CD
:102A5000FB1508F459CDEB2DF0E0E654F34E0C9441
:102A6000511C1F93CF93DF9380918701807FA9F43E
:102A700080918401882389F08091B901D0918801E7
:102A80006091820170918301A0918501B0918601CE
:102A9000C62FC72316E0D81304C0DF91CF911F9132
:102AA000089590E0109711F0CF3F19F401968770C8
:102AB000F2CF189F9001199F300D1124F901E757AB
:102AC000FE4F41814713F2CF40814613EFCF428141
:102AD0004111ECCF438154814A1B5B0B443F514071
:102AE00028F7809187018F70806180938701F901B9
:102AF000E257FE4F80818F708061808382E891E091
:102B00000E94920FDF91CF911F910C9474058F92C8
:102B10009F92AF92BF92CF92DF92EF92FF920F936C
:102B20001F93CF93DF93CDB7DEB761970FB6F894BD
:102B3000DEBF0FBECDBF8C0185E0F801DE011D9622
:102B400001900D928A95E1F7D801EC901196DC90F6
:102B500011971296CC90129782E8882E81E0982ED9
:102B600040918501509186014115510509F444C1F8
:102B70009091820120918301892F82238F3F09F454
:102B80003BC11396AD90BC901497F0908401F50171
:102B9000E41BF50BAF01FF2009F4FFC08091870112
:102BA000382F307F443F514008F0C8C0311185C0F4
:102BB000FC2C2D1124C09E1122C0C11020C08F708A
:102BC000806180938701C4010E94920F80918701E8
:102BD000D80115968C938F2D61960FB6F894DEBFB1
:102BE0000FBECDBFDF91CF911F910F91FF90EF905E
:102BF000DF90CF90BF90AF909F908F900895A114D9
:102C0000B10429F08E2D8D218F3F09F016C180E08F
:102C100080FF14C04C2D6D2D8E2D0E9454058823ED
:102C200069F082E891E00E94920F86E0E2E8F1E02C
:102C3000DF011D928A95E9F7F12CCDCFAB2829F061
:102C40008E2D8D218F3F09F0F5C080E0B82FB17037
:102C5000AB2E80FF29C04C2D6D2D8E2D0E9454056A
:102C6000B82E811121C0ED86DE868D859E850E945D
:102C7000A00B292F22952F70223050F0243078F4A9
:102C80009F7051F0F8019581907F31F4FB2CA3CF18
:102C90009F7011F08823D1F3805E8830B8F3C801AB
:102CA0000E94920FBA2CF2CFCC2009F494CF8091DD
:102CB0008701816080938701BFCF2D1112C09E11C3
:102CC00010C0C1100EC015968C93C8010E94920FBF
:102CD00086E0F801A2E8B1E001900D928A95E1F753
:102CE0007ACFED86DE868D859E850E94AA0B88238D
:102CF00009F1CC20F9F080918701803270F02091A9
:102D000082013091830138872F831986BB86AA867A
:102D10008C87CE0107960E94920F86E0F801A2E808
:102D2000B1E001900D928A95E1F70E943115FF24E0
:102D3000F39451CFC8010E94920FF9CF332309F4C5
:102D400070CF2D110FC09E110DC0C1100BC0F80126
:102D50008583C8010E94920F86E0D4011D928A9556
:102D6000E9F739CFED86DE868D859E850E94AA0B18
:102D7000882301F3CC20F1F280918701803268F240
:102D800020918201309183013A8329831B82BD8285
:102D9000AC828E83CE010196BECFE43FF140E0F6D7
:102DA000FC2CCC2039F22D1116C09E1114C080913C
:102DB000870180FD8DCF982F907F09F489CFF8018E
:102DC0008583903F09F481CF982F907F905F8F701B
:102DD000892B85837ACFED86DE868D859E850E9440
:102DE000AA0B81119ACF809187018160809387011E
:102DF000C8010E94920FEFCECC2009F49BCFED8644
:102E0000DE868D859E850E94AA0BF82E882309F404
:102E100091CF86E0F801A2E8B1E001900D928A9589
:102E2000E1F780918201909183010E94A00B0E94A2
:102E30003115D1CE81E08C2509CF81E08C25E8CEFB
:102E40001F93CF93DF93CDB7DEB767970FB6F89494
:102E5000DEBF0FBECDBF4B8B5C8B6D8B7E8B8F8BA4
:102E60001A8A198A85E0FE017396DE011D9601908B
:102E70000D928A95E1F786E0FE013D96DE011796F8
:102E800001900D928A95E1F7CE0107960E94871571
:102E9000882389F016E08091B90190918801891307
:102EA00049C067960FB6F894DEBF0FBECDBFDF9165
:102EB000CF911F91089586E0FE013796DE011196AD
:102EC00001900D928A95E1F78A859B85892B11F3F4
:102ED0008F81988589238F3FE9F22091880130E026
:102EE000C9010196877099274091B90148171906C1
:102EF00071F40E94B60C109288011092B90186E01C
:102F0000E2E8F1E0DF011D928A95E9F7C3CF96E090
:102F1000929FD001939FB00D1124A757BE4FFE0181
:102F2000319601900D929A95E1F7809388010E9465
:102F30007405B0CF819FC001112487579E4F0E9416
:102F40008715882309F4ADCF8091B90190E00196EF
:102F5000877099278093B9019ECF1F920F920FB669
:102F60000F9211242F933F934F935F936F937F930F
:102F70008F939F93AF93BF93CF93DF93EF93FF9381
:102F8000D091E900DF708091EC00C82FC17080FD06
:102F9000C0E81092E9008091F000877F8093F000F4
:102FA00078940E94CB0C1092E9008091F000886028
:102FB0008093F000CD2BCF70C093E900FF91EF918B
:102FC000DF91CF91BF91AF919F918F917F916F9141
:102FD0005F914F913F912F910F900FBE0F901F90D7
:102FE00018951F920F920FB60F9211242F933F93B3
:102FF0004F935F936F937F938F939F93AF93BF9301
:10300000EF93FF938091E10082FF09C08091E2007D
:1030100082FF05C08091E1008B7F8093E100809169
:10302000DA0080FF24C08091D80080FF20C080910A
:10303000DA008E7F8093DA008091D90080FF9FC0F4
:1030400080E189BD82E189BD09B400FEFDCF81E048
:10305000809329028091FB01811109C00E94940292
:103060000E9487038091E20084608093E200809157
:10307000E10080FF17C08091E20080FF13C08091C3
:10308000E2008E7F8093E2008091E2008061809375
:10309000E2008091D80080628093D80019BC85E05E
:1030A000809329028091E10084FF2DC08091E2008D
:1030B00084FF29C080E189BD82E189BD89B5982F4F
:1030C000917080FFFBCF8091D8008F7D8093D800D6
:1030D0008091E1008F7E8093E1008091E2008F7EFD
:1030E0008093E2008091E20081608093E200809111
:1030F0002002882309F449C084E0809329020E94B9
:10310000B60C0E9459068091E10083FF27C0809190
:10311000E20083FF23C08091E100877F8093E1007C
:1031200082E080932902109220028091E1008E7F3C
:103130008093E1008091E2008E7F8093E200809195
:10314000E20080618093E20042E060E080E00E9463
:1031500055038091F00088608093F000FF91EF911B
:10316000BF91AF919F918F917F916F915F914F919F
:103170003F912F910F900FBE0F901F90189519BC83
:10318000109229021092FB0172CF8091E30087FD1B
:1031900093E090932902B3CFCDB7DEB7AA970FB6CD
:1031A000F894DEBF0FBECDBF84B7877F84BF0FB654
:1031B000F894A895809160008861809360001092D7
:1031C00060000FBE80E890E00FB6F8948093610035
:1031D000909361000FBE85B7806885BF85B7806812
:1031E00085BF0E9494020E9487038091E200846060
:1031F0008093E2007894809129028823A1F01091B5
:10320000E9001F709091EC00892F817090FD80E89B
:10321000182B1092E9008091E80083FD0E94CB0CEE
:103220001F701093E90082E084BD93E095BD9AEF92
:1032300097BD80936E0086EC0E94BB0684E30E94DB
:10324000BB0683E30E94BB0682E30E94BB0600E448
:1032500011E08AE4E82E81E0F82EF80181918F01D7
:103260000E94BB06E016F106C1F71092DD01109234
:10327000DC011092F4011092F3011092DF01109220
:10328000DE011092F6011092F5011092E101109208
:10329000E0011092F8011092F7011092E3011092F0
:1032A000E2011092FA011092F9010E94E2088FE304
:1032B0009CE90197F1F700C000000E94E2088091AC
:1032C000F30180FF0BC080E00E94330C6FEF7FEFB3
:1032D00090E080E00E948A1C0E948F0790E080E0CE
:1032E0000E94661C8C3E9E4F11F00E944C0C82E2A4
:1032F00090E00E945E1C823209F072C283E290E08C
:103300000E945E1C823009F06BC284E290E00E9451
:103310005E1C823009F064C290E080E00E94661C6E
:103320008C3E9E4F11F00E944C0C82E090E00E9477
:103330005E1C8093EA010E949E099093E5018093B0
:10334000E40183E090E00E945E1C682F70E090E052
:1033500080E00E944F0680E091E09093E701809327
:10336000E601BB24BA945AEF252E60E1A62E70E543
:10337000372EE4E14E2EF9E05F2EA2E16A2EB8E18D
:10338000EB2EF12C10E4712E80912902853009F486
:1033900077C00E94E208E3EFF1E0ABEEB1E010E0AD
:1033A00000E0602F819191912D913D91281739076F
:1033B00009F4A4C02827392770E0CC24C394D12C69
:1033C000A60142235323452B09F492C079A36AA393
:1033D00096012823392391E0232B09F490E09BA345
:1033E0000E944A048160782F9DA38CA349A15AA111
:1033F0006BA18DA10E942017000F111FF801E5514C
:10340000FE4F80819181C826D926D182C0820E9438
:1034100059069091E901891721F00E94590680937D
:10342000E90180912902843009F0AECF83E08093D6
:10343000E9008091E80082FFA7CF8091E80090E04A
:1034400085FF0CC00E94B30230E2C32ED12C8E0146
:103450000F5F1F4F882309F471C091E08091E8004D
:103460008B778093E800992309F48ECFE981E150AE
:10347000E33108F0C6C0F0E0EA53F34E0C94511C5F
:1034800080912902843009F11092E8010FB6F89476
:10349000A895E09260000FBE7092600083B7817FB4
:1034A000846083BF83B7816083BF7894889583B736
:1034B0008E7F83BF0FB6F894A895809160008861D5
:1034C00080936000109260000FBE80911F028823DD
:1034D00009F45ACF0E94E208E3EFF1E08191919163
:1034E000892B09F069C121E0EB3FF207B9F74CCF16
:1034F0007F5FCC0CDD1C7A3009F062CF0F5F1F4F6D
:103500000430110509F04DCFBEA2BFA218A60E943B
:103510004A048160782F9AA789A74EA15FA168A568
:103520008AA50E94201773CF8091F100F801819342
:103530008F01F1E0CF1AD10809F48FCF8091E80014
:1035400085FDF2CF8091E8008B778093E8000E94A0
:10355000B302882399F381CF1A825B82CE01019650
:103560000E940E0311CF8A81823009F446C1833054
:10357000A9F0813009F045C02FB7F89460912A0274
:1035800070912B0280912C0290912D022FBF0E94EE
:10359000571C6B837C838D839E83E0CF8091F301E6
:1035A0009091F4019827892798279C838B83809199
:1035B000F5019091F6019827892798279E838D839E
:1035C0008091F7019091F80198278927982798878B
:1035D0008F838091F9019091FA0198278927982784
:1035E0009A878987BBCF8A81823059F46B817C812D
:1035F0008D819E810E94571C85E290E00E946C1C88
:10360000ADCFB982ABCF4C816B818A810E94AC096E
:103610009827892798279E838D83A0CF0D811E81AF
:103620001027012710278A81CB80C49C60011124B8
:10363000839DC00CD11C11248C8190E0880F991FB0
:10364000C80ED91E612FC60186960E946C1C602F81
:10365000C6018796D3CF0E94CE0B80CFAA827ECFA1
:1036600021E02A832B827ACFCA80DB80DC24CD2420
:10367000DC248E010F5F1F4F8C80800E912E911CD9
:10368000C6018A5F9D4F8016910609F467CFEAEF65
:10369000CE16E1E0DE0650F40E945E1CF801848341
:1036A000FFEFCF1ADF0A0F5F1F4FEACFF801148236
:1036B000F7CF0A811B81102701271027CE01019621
:1036C0004C01CC80C00ED12ED11CC8018A5F9D4F09
:1036D000C016D10609F442CF0A3FE1E01E0720F4EC
:1036E000F40164810E946C1CFFEF8F1A9F0A0F5F28
:1036F0001F4FEBCF0E94230C31CF26E02A832ECF21
:10370000CA80DB80DC24CD24DC248E010F5F1F4FB8
:103710008C80800E912E911CC60186960815190585
:1037200009F41CCFE0EECE16E1E0DE0650F40E9474
:103730005E1CF8018483FFEFCF1ADF0A0F5F1F4F73
:10374000EBCFF8011482F7CF0A811B8110270127E4
:103750001027CE0101964C01CC80C00ED12ED11C79
:10376000C80186960C151D0509F4F8CE003EE1E06F
:103770001E0720F4F40164810E946C1CFFEF8F1A75
:103780009F0A0F5F1F4FECCF80E00E94330C6FEF5A
:103790007FEF90E080E00E948A1CE0CECE0101968F
:1037A0000E940E032FEF81EE94E021508040904064
:1037B000E1F700C0000090CDA9BC69BC09B400FECF
:1037C000FDCF8091D8008F7D8093D8008091E0005C
:1037D00082608093E0008091E00081FDFCCFD4CD39
:1037E00060E085E290E00E946C1C0E94CE0B0E947B
:1037F000230C81E00E94330C8FCD85E290E00E9483
:103800005E1C1B821C821D828E83A8CE78941F9220
:103810001FB61F9211248F939F93AF93BF938091F4
:103820002A0290912B02A0912C02B0912D020196B8
:10383000A11DB11D80932A0290932B02A0932C020C
:10384000B0932D02BF91AF919F918F911F901FBE9A
:103850001F9018951F921FB61F9211248F939F934C
:10386000AF93BF938091E801811113C080912A0228
:1038700090912B02A0912C02B0912D024196A11D96
:10388000B11D80932A0290932B02A0932C02B09337
:103890002D02BF91AF919F918F911F901FBE1F90DE
:1038A0001895EE0FFF1F0590F491E02D09946927FC
:1038B000962769277827872778270895F999FECFD3
:1038C00092BD81BDF89A992780B50895A8E1B0E02E
:1038D00042E050E00C94921C262FF999FECF92BD45
:1038E00081BDF89A019700B4021639F01FBA20BDC5
:1038F0000FB6F894FA9AF99A0FBE08950396272FF7
:103900000E946D1C0E946C1C252F0E946D1C242F90
:103910000C946D1C0196272F0E946D1C0C946C1C3E
:10392000DC01CB01FC01F999FECF06C0F2BDE1BD7F
:10393000F89A319600B40D9241505040B8F708956E
:10394000F894FFCFB90BB90BC20BC20BC40BC20B5F
:10395000C20BC20BB90BB90BC90BC20BC20BC90B03
:10396000B00DD80D2B0ED80D2B0E0B0E430E2B0EBB
:10397000400F4D0F4F124F12BE12BE12141384127D
:10398000841284122E13041413141314AC1AB31AD1
:10399000F31A031B0E1B2B1B011B011B011BC41B5A
:1039A000CE1B2E1B301B341B591B7A1B7D1B801B0F
:0239B000A41B56
:1039B20047044F0746044B07470701818283E20011
:1039C200E900EA00B500B600B700CD008301CC00E3
:1039D2008A01920194012102230224022502260275
:1039E20027022A02B300B4006F007000C6343332DB
:1039F200919094669731F7F6F5F440226D3B0119E8
:0A3A020001AC000D04260446040088
:00000001FF
